:020000040800F2
:10000000980600208901000867080008FF0600081C
:100010001D08000843020008F10D00080000000060
:10002000000000000000000000000000810900083E
:1000300047020008000000003D0900086D0A0008A2
:10004000A3010008A3010008A3010008A301000800
:10005000A3010008A3010008A3010008A3010008F0
:10006000A3010008A3010008F9020008A301000889
:10007000A3010008A3010008A3010008A3010008D0
:10008000A3010008A3010008A3010008A3010008C0
:10009000A3010008A3010008A30100082103000830
:1000A000A3010008A3010008A3010008A3010008A0
:1000B000D10A0008050B0008A3010008A3010008ED
:1000C000A3010008A3010008A3010008A301000880
:1000D000A3010008A3010008A3010008A301000870
:1000E000A3010008A3010008A301000800F002F822
:1000F00000F03AF80AA090E8000C82448344AAF188
:100100000107DA4501D100F02FF8AFF2090EBAE885
:100110000F0013F0010F18BFFB1A43F0010318473B
:10012000080D0000280D0000103A24BF78C878C1DF
:10013000FAD8520724BF30C830C144BF04680C60ED
:10014000704700000023002400250026103A28BF35
:1001500078C1FBD8520728BF30C148BF0B60704739
:100160001FB51FBD10B510BD00F031F81146FFF7E7
:10017000F7FF00F03FFE00F04FF803B4FFF7F2FF87
:1001800003BC00F057F800000948804709480047C1
:10019000FEE7FEE7FEE7FEE7FEE7FEE7FEE7FEE737
:1001A000FEE7FEE704480549054A064B7047000094
:1001B000710A0008ED000008980000209806002051
:1001C00098020020980200207047704770477546DB
:1001D00000F02CF8AE4605006946534620F00700B3
:1001E000854618B020B5FFF7DDFFBDE820404FF091
:1001F00000064FF000074FF000084FF0000B21F011
:100200000701AC46ACE8C009ACE8C009ACE8C009DD
:10021000ACE8C0098D46704710B50446AFF30080C6
:100220002046BDE81040FFF7A8BF00000048704717
:100230003800002001491820ABBEFEE7260002006E
:10024000704700BFFEE77047024931F81010024ABC
:1002500011607047140E00080C08014010B500240E
:100260001E48007800F0010201211D4800F005FA47
:100270001A480078C0F340020221194800F0FDF945
:1002800016480078C0F380020421154800F0F5F903
:100290001448007848B914480288144801880F4867
:1002A000007800F0EFF9044608E011480288114890
:1002B00041880A48007800F0E5F904462046FFF737
:1002C000C3FF06480078401C0449087008460078BF
:1002D000082801D10020087010BD00003400002063
:1002E0000010014036000020020000200000002025
:1002F000280000201C00002010B5102000F09AF803
:10030000012809D10020054908700121880700F063
:100310000FFC102000F03EF810BD00003600002059
:1003200010B5202000F086F8012808D11549087082
:100330000021800700F0FCFB202000F02BF840207B
:1003400000F078F801280BD101231A460E490F4816
:1003500000F066FA01200E490870402000F01AF8FB
:10036000802000F067F801280BD1831E1A46064949
:10037000064800F055FA012005490870802000F079
:1003800009F810BD36000020280000201C000020C5
:100390003500002001490860704700001404014046
:1003A0001CB50421022000F0B9F8102000900020B4
:1003B0008DF804000C208DF8050001208DF8060052
:1003C000684600F04BF80521022000F0A7F8202035
:1003D000009000208DF804000C208DF8050001200D
:1003E0008DF80600684600F039F80621022000F07A
:1003F00095F84020009000208DF804000C208DF826
:10040000050001208DF80600684600F027F8072156
:10041000022000F083F88020009000208DF8040076
:100420000C208DF8050001208DF80600684600F0CC
:1004300015F81CBD014600200022074B1B6803EA8B
:100440000102054B14331B680B4013B10AB10120A4
:1004500000E0002070470000000401400021234913
:100460008279002A3AD00A46126803689A430B46FA
:100470001A600A1D126803689A430B1D1A600279FC
:1004800011440A6803681A430A60184A083212685D
:1004900003689A43154B08331A601A1D12680368E3
:1004A0009A43124B0C331A604279102A0ED11A1F4C
:1004B000126803681A430D4B08331A601A1D12683C
:1004C00003681A43094B0C331A600DE0074942795F
:1004D00011440A6803681A430A6005E0027911446E
:1004E0000A6803689A430A607047000000040140EC
:1004F00008B50121112000F033FAF020ADF800001A
:1005000003208DF8020048208DF803006946024858
:1005100000F024F808BD00000010014030B50022B2
:100520008B071C0F0F2303FA04F20B4B8C1053F8AC
:1005300024309343084C8D1044F8253023468C100A
:1005400053F824308C07240F00FA04F42343024CA0
:100550008D1044F8253030BD080001402DE9F041F0
:10056000024600250026002000230024002791F8E1
:1005700003C00CF00F0591F803C00CF0100CBCF197
:10058000000F03D091F802C04CEA050591F800C0B5
:10059000BCF1000F31D0146800202BE04FF0010CAB
:1005A0000CFA00F3B1F800C00CEA03069E4220D119
:1005B00083004FF00F0C0CFA03F7BC4305FA03FC61
:1005C0004CEA040491F803C0BCF1280F06D14FF0A7
:1005D000010C0CFA00FCC2F814C00AE091F803C048
:1005E000BCF1480F05D14FF0010C0CFA00FCC2F829
:1005F00010C0401C0828D1D31460B1F800C0BCF171
:10060000FF0F34DD546800202EE000F1080C4FF09D
:10061000010808FA0CF3B1F800C00CEA03069E4288
:1006200021D183004FF00F0C0CFA03F7BC4305FAFD
:1006300003FC4CEA040491F803C0BCF1280F05D177
:1006400000F1080C08FA0CF8C2F8148091F803C005
:10065000BCF1480F07D100F1080C4FF0010808FA6F
:100660000CF8C2F81080401C0828CED35460BDE8B6
:10067000F08141617047016170470AB1016100E09A
:100680004161704730B503460020082B35D2DFE8C2
:1006900003F0040B10171C23282F0A2491FBF4F5F8
:1006A00004FB1514E0B228E00A2491FBF4F4E0B254
:1006B00023E00A2491FBF4F504FB1514E0B21CE0DE
:1006C0000A2491FBF4F4E0B217E00A2492FBF4F55B
:1006D00004FB1524E0B210E00A2492FBF4F4E0B22B
:1006E0000BE00A2492FBF4F504FB1524E0B204E0CD
:1006F0000A2492FBF4F4E0B200BF00BF30BD00BF9B
:10070000FEE7000070B504460E461546E088401C22
:10071000E080E088E880208920B101282DD00228DF
:1007200076D14FE0E0886188884221D176B9394896
:10073000007810B101206081688101213648FFF7FF
:1007400098FF04213448FFF796FF07E02021324844
:10075000FFF78FFF08213048FFF78DFF0020E08072
:10076000E088E880012020812089E880002070BD99
:100770006088E188401A80B2F9E7E08821888842E1
:100780001BD146B904212448FFF773FF02212248F8
:10079000FFF771FF07E008211F48FFF76AFF1021EC
:1007A0001D48FFF768FF0020E080E088E880022015
:1007B00020812089E8800020D9E72088E188401A3C
:1007C00080B2D4E7E088A18888421CD146B90221D2
:1007D0001148FFF74EFF01210F48FFF74CFF07E0DC
:1007E00010210D48FFF745FF20210B48FFF743FF7D
:1007F0000020E080E088E880002020812089E880D7
:100800000020B4E704E0A088E188401A80B2AEE797
:1008100000BFACE735000020000C014000BFFEE740
:1008200010B544881444082C02DA0824448010BD12
:1008300044881C443C2C02DD3C244480F7E70C88AF
:10084000052C02DA05240C80F1E70C88392C02DD36
:1008500039240C80EBE74488144444800C881C4401
:100860000C8000BFE3E7704708B54FF4A06000F0CC
:100870005BF80A208DF8000001208DF801000220AD
:100880008DF8020001208DF80300684600F014F88E
:100890004FF4A06000F048F817208DF80000012008
:1008A0008DF8010002208DF8020001208DF8030070
:1008B000684600F001F808BD70B5002100230F2242
:1008C000C47804B3154C246804F4E064C4F5E0640F
:1008D000210AC1F10403CA40447804FA03F1847880
:1008E0001440214309010E4C0678A155047804F008
:1008F0001F050124AC4005786D11AD0005F1E02520
:10090000C5F8004109E0047804F01F050124AC405B
:10091000044D0678761145F8264070BD0CED00E0D8
:1009200000E400E080E100E002490143024A116076
:10093000704700000000FA050CED00E07047000071
:1009400029B1064AD2690243044BDA6104E0034A42
:10095000D2698243014BDA61704700000010024007
:1009600029B1064A92690243044B9A6104E0034AA2
:1009700092698243014B9A61704700000010024067
:10098000704710B500F002F810BD00000CB5002053
:10099000019000903348006840F48030314908608D
:1009A00000BF3048006800F4003000900198401CFF
:1009B0000190009818B90198B0F5A06FF1D12948BD
:1009C000006800F4003010B10120009001E0002028
:1009D00000900098012843D12348006840F010009F
:1009E000214908600846006820F0030008600846B6
:1009F000006840F0020008601A48406819494860E1
:100A00000846406848600846406840F48060486096
:100A10000846406820F47C1048600846406840F46E
:100A2000E81048600846006840F08070086000BF29
:100A30000C48006800F000700028F9D009484068B0
:100A400020F00300074948600846406840F0020073
:100A5000486000BF0348406800F00C000828F9D146
:100A60000CBD000000100240002002407047000052
:100A700010B51348006840F00100114908600846AD
:100A80004068104908400E494860084600680E4911
:100A900008400B4908600846006820F48020086080
:100AA0000846406820F4FE0048604FF41F0088604C
:100AB000FFF767FF4FF000600449086010BD0000B9
:100AC000001002400000FFF8FFFFF6FE08ED00E016
:100AD00010B50121880700F037F8012809D1054B2E
:100AE000054A0649064800F051F90121880700F03F
:100AF0001CF810BD280000201C0000201000002061
:100B00000400002010B50121054800F01DF801285F
:100B100005D1FFF7A3FB0121014800F006F810BD45
:100B200000040040CA4302827047CA4302827047F1
:100B300021B1028842F00102028004E002884FF6EF
:100B4000FE731A400280704730B502460020002331
:100B50000024158A05EA0103958905EA010413B109
:100B60000CB1012000E0002030BD1AB183890B4395
:100B7000838102E083898B438381704701894FF62B
:100B8000F872114001817047002202881D4B984283
:100B90000ED01D4B98420BD0B0F1804F08D01B4BAC
:100BA000984205D01A4B984202D01A4B984204D171
:100BB0004FF68F731A404B881A43174B984207D051
:100BC000164B984204D04FF6FF431A40CB881A4385
:100BD00002808B8883850B8803850A4B98420BD053
:100BE000094B984208D00E4B984205D00D4B9842C5
:100BF00002D00D4B984201D10B7A038601238382E8
:100C000070470000002C0140003401400004004007
:100C100000080040000C004000100040001400409C
:100C20000040014000440140004801401FB501213F
:100C30000846FFF785FE4FF08040FFF79FFF00203A
:100C4000ADF80A00ADF8060042F20F70ADF80800EA
:100C500040F2CF20ADF8040000208DF80C0001A96F
:100C60004FF08040FFF790FF01218807FFF75AFF00
:100C7000012211469007FFF778FF4FF4A060FFF7BD
:100C800053FE1C208DF8000001208DF803008DF824
:100C9000010000208DF802006846FFF70DFE0121DB
:100CA0000220FFF74DFE1648FFF768FF0020ADF861
:100CB0000A00ADF8060040F2F310ADF80800472036
:100CC000ADF8040001A90E48FFF75EFF01210C48B2
:100CD000FFF728FF012211460948FFF746FF1D20B4
:100CE0008DF8000000208DF8010001208DF8020031
:100CF0006846FFF7E1FD01210148FFF719FF1FBD1D
:100D00000004004008B501210820FFF729FE012159
:100D10000420FFF725FE01211020FFF721FE1020FF
:100D20008DF803003F20ADF8000003208DF802008D
:100D300069461348FFF712FC09211148FFF79BFC95
:100D40001020ADF80000FF20ADF8000003208DF862
:100D5000020069460B48FFF701FC40210948FFF7F4
:100D60008AFC1020ADF800000720ADF80000032039
:100D70008DF8020069460448FFF7F0FB08BD00004B
:100D8000000C014000080140001001402DE9F04135
:100D900004460D4616461F46324600212046FFF700
:100DA000B1FC104908803A4601212846FFF7AAFC09
:100DB0000D4908800D48007888B10A48008810B1B4
:100DC0000846008858B96089012808D17088608079
:100DD0003888288000206081708104490870BDE84F
:100DE000F0810000000000200200002035000020FB
:100DF00000BFFEE7FFF71AFFFFF784FF00F002F8DD
:100E000000BFFEE710B5FFF773FBFFF7C9FAFFF766
:100E10002BFD10BD3F0006005B004F0066006D001B
:100E20007D0007007F006F00480E000800000020D2
:100E30003800000028010008800E0008380000205B
:100E400060060000440100080000000008000B00DC
:100E5000030000000000000008000B000300000079
:100E60000100000008000B0003000000000000006B
:100E700008000B000300000001000000000000005B
:04000005080000ED02
:00000001FF
