:020000040800F2
:10000000A8060020890100080D0C0008AB0A0008B2
:10001000810B0008A903000851120008000000002D
:100020000000000000000000000000004D0D00086E
:100030008904000800000000090D0008490E0008AE
:10004000A3010008A3010008A3010008A301000800
:10005000A3010008A3010008A3010008A3010008F0
:10006000A301000851050008C9050008A301000804
:10007000A3010008A3010008A3010008A3010008D0
:10008000A3010008A3010008A3010008A3010008C0
:10009000A3010008A3010008A30100080506000849
:1000A000A3010008A3010008A3010008A3010008A0
:1000B000AD0E0008E10E0008A3010008A30100082E
:1000C000A3010008A3010008A3010008A301000880
:1000D000A3010008A3010008A3010008A301000870
:1000E000A3010008A3010008A301000800F002F822
:1000F00000F03AF80AA090E8000C82448344AAF188
:100100000107DA4501D100F02FF8AFF2090EBAE885
:100110000F0013F0010F18BFFB1A43F0010318473B
:100120005811000078110000103A24BF78C878C137
:10013000FAD8520724BF30C830C144BF04680C60ED
:10014000704700000023002400250026103A28BF35
:1001500078C1FBD8520728BF30C148BF0B60704739
:100160001FB51FBD10B510BD00F0A8F81146FFF770
:10017000F7FF01F06FF800F0C6F803B4FFF7F2FFE5
:1001800003BC00F0CDF8000009488047094800474B
:10019000FEE7FEE7FEE7FEE7FEE7FEE7FEE7FEE737
:1001A000FEE7FEE704480549054A064B7047000094
:1001B0004D0E0008ED000008A8000020A806002051
:1001C000A8020020A8020020032A40F2308010F08C
:1001D000030C00F0158011F8013BBCF1020F6244E2
:1001E00098BF11F801CB00F8013B38BF11F8013B73
:1001F000A2F1040298BF00F801CB38BF00F8013B20
:1002000011F0030300F02880083AC0F0088051F88C
:10021000043B083A51F804CBA0E80810F5E7121D9A
:100220005CBF51F8043B40F8043BAFF30080D207B9
:1002300024BF11F8013B11F801CB48BF11F8012B85
:1002400024BF00F8013B00F801CB48BF00F8012BA8
:10025000704770477047704710B5203AC0F00B8068
:10026000B1E81850203AA0E81850B1E81850A0E8BA
:100270001850BFF4F5AF5FEA027C24BFB1E8185014
:10028000A0E8185044BF18C918C0BDE810405FEA84
:10029000827C24BF51F8043B40F8043B08BF704700
:1002A000D20728BF31F8023B48BF11F8012B28BF05
:1002B00020F8023B48BF00F8012B7047754600F05C
:1002C0002BF8AE4605006946534620F007008546E8
:1002D00018B020B5FFF766FFBDE820404FF00006DC
:1002E0004FF000074FF000084FF0000B21F007011E
:1002F000AC46ACE8C009ACE8C009ACE8C009ACE861
:10030000C0098D46704710B50446AFF30080204603
:10031000BDE81040FFF731BF00487047440000209F
:1003200001491820ABBEFEE726000200704700001E
:100330002DE9F04106460F46DFF868C09CF800C082
:10034000BCF1000F02D1304639460BE0DFF854C053
:100350009CF800C0BCF1010F02D13846314601E0E3
:10036000BDE8F081B1F804C04FF0020808FB02C3F9
:10037000B0F800C00CEB0204B0F802C00CEB0205B0
:10038000012B09DD3C2B07DC012C05DD3C2C03DCBB
:10039000012D01DD3C2D00DDE2E78B8004804580EE
:1003A00000BFDDE74200002000BFFEE770B5054654
:1003B0000C466DBBC4B1012C0DD0022C02D0032C15
:1003C00024D11AE041212F4800F029FB44212D4877
:1003D00000F027FB1BE044212A4800F020FB842189
:1003E000284800F01EFB12E08421264800F017FB8D
:1003F0008221244800F015FB09E08221214800F009
:100400000EFB41211F4800F00CFB00E070BD00BF57
:10041000012D35D1E4B1012C0FD0022C02D0032CD8
:100420002CD120E04FF49071164800F0F8FA4FF408
:100430008471144800F0F5FA21E04FF484711148FA
:1004400000F0EDFA4FF402710E4800F0EAFA16E0FF
:100450004FF402710B4800F0E2FA4FF404710948BE
:1004600000F0DFFA0BE04FF40471064800F0D7FA11
:100470004FF49071034800F0D4FA00E0C6E700BFE3
:1004800000BFC3E7000C014070470000024931F88B
:100490001010024A11607047641200080C080140F5
:1004A00010B50446207800F0010201210E4800F04A
:1004B000BAFA2078C0F3400202210B4800F0B3FAE8
:1004C0002078C0F380020421074800F0ACFA4020F5
:1004D000064908602078401C20702078082801D147
:1004E0000020207010BD0000001001400C080140E9
:1004F0002DE9F04104460D4616460027207800F00D
:1005000001020121114800F08EFA2078C0F3400268
:1005100002210E4800F087FA2078C0F380020421FF
:100520000A4800F080FA20783246294600F080FA26
:1005300007463846FFF7AAFF2078401C2070207835
:10054000082801D100202070BDE8F0810010014092
:1005500010B5082000F044F901282DD11748006893
:100560001749088000214FF0804000F015FD154824
:10057000007820B1052812D0062818D107E00620FF
:10058000104908704FF4B2700C49086010E0052063
:100590000C49087040F249100849086008E006203C
:1005A000084908704FF4B2700449086000E010BDBB
:1005B00000BF082000F09EF800BFF8E70C0C0140D7
:1005C000400000203E00002010B5102000F008F987
:1005D000012810D10020084908700848008818B187
:1005E00006480088064908600121880700F0D4FC0D
:1005F000102000F07FF810BD3E00002040000020D9
:100600000C0C014010B5202000F0EAF8012826D19A
:1006100033480078052818D2DFE800F003070B0FF5
:10062000130001202E49087010E002202C490870A8
:100630000CE003202A49087008E0042028490870CB
:1006400004E001202649087000E010BD00BF002131
:100650004FF0804000F0A0FC202000F04BF840203C
:1006600000F0BEF801280CD11D48037801221D4975
:100670001D4800F087FA01201C490870402000F056
:1006800039F8802000F0ACF801280DD11448037827
:100690004FF0FF321349144800F074FA0120134957
:1006A0000870802000F026F84FF4807000F098F871
:1006B000012813D10E48007818B901200C490870A0
:1006C00008E00B480078012803D100200849087091
:1006D00000E0BAE74FF4807000F00CF800BFB4E718
:1006E0003E000020200000202E0000203D000020C1
:1006F00042000020014908607047000014040140D6
:100700001CB50321022000F0DFF808200090002033
:100710008DF804000C208DF8050001208DF80600EE
:10072000684600F071F80421022000F0CDF8102096
:10073000009000208DF804000C208DF805000120A9
:100740008DF80600684600F05FF80521022000F0F1
:10075000BBF82020009000208DF804000C208DF8BC
:10076000050001208DF80600684600F04DF80621CE
:10077000022000F0A9F84020009000208DF804002D
:100780000C208DF8050001208DF80600684600F069
:100790003BF80721022000F097F88020009000200D
:1007A0008DF804000C208DF8050001208DF806005E
:1007B000684600F029F80821022000F085F84FF47F
:1007C0008070009000208DF804000C208DF805004A
:1007D00001208DF80600684600F016F81CBD0000E8
:1007E000014600200022074B1B6803EA0102054B6B
:1007F00014331B680B4013B10AB1012000E0002044
:100800007047000000040140002123498279002A3A
:100810003AD00A46126803689A430B461A600A1DCA
:10082000126803689A430B1D1A60027911440A6822
:1008300003681A430A60184A0832126803689A4328
:10084000154B08331A601A1D126803689A43124B3D
:100850000C331A604279102A0ED11A1F12680368ED
:100860001A430D4B08331A601A1D126803681A43A5
:10087000094B0C331A600DE00749427911440A68AC
:1008800003681A430A6005E0027911440A680368A4
:100890009A430A60704700000004014008B5012136
:1008A000112000F043FA4FF4FC70ADF80000032073
:1008B0008DF8020048208DF803006946014800F0D9
:1008C00023F808BD0010014030B500228B071C0F33
:1008D0000F2303FA04F20B4B8C1053F8243093438C
:1008E000084C8D1044F8253023468C1053F82430E2
:1008F0008C07240F00FA04F42343024C8D1044F8B3
:10090000253030BD080001402DE9F04102460025A8
:100910000026002000230024002791F803C00CF0DB
:100920000F0591F803C00CF0100CBCF1000F03D0C0
:1009300091F802C04CEA050591F800C0BCF1000F27
:1009400031D0146800202BE04FF0010C0CFA00F3BA
:10095000B1F800C00CEA03069E4220D183004FF09C
:100960000F0C0CFA03F7BC4305FA03FC4CEA040431
:1009700091F803C0BCF1280F06D14FF0010C0CFA1E
:1009800000FCC2F814C00AE091F803C0BCF1480FA3
:1009900005D14FF0010C0CFA00FCC2F810C0401C4D
:1009A0000828D1D31460B1F800C0BCF1FF0F34DDCA
:1009B000546800202EE000F1080C4FF0010808FAFE
:1009C0000CF3B1F800C00CEA03069E4221D183006B
:1009D0004FF00F0C0CFA03F7BC4305FA03FC4CEA8A
:1009E000040491F803C0BCF1280F05D100F1080CF4
:1009F00008FA0CF8C2F8148091F803C0BCF1480F53
:100A000007D100F1080C4FF0010808FA0CF8C2F801
:100A10001080401C0828CED35460BDE8F0814161AD
:100A20007047016170470AB1016100E041617047A0
:100A300030B503460020082B35D2DFE803F0040B65
:100A400010171C23282F0A2491FBF4F504FB15141E
:100A5000E0B228E00A2491FBF4F4E0B223E00A2497
:100A600091FBF4F504FB1514E0B21CE00A2491FBA1
:100A7000F4F4E0B217E00A2492FBF4F504FB152429
:100A8000E0B210E00A2492FBF4F4E0B20BE00A2496
:100A900092FBF4F504FB1524E0B204E00A2492FB77
:100AA000F4F4E0B200BF00BF30BD00BFFEE770B598
:100AB00004460E4615462089401C20812089288145
:100AC000A07A68B3012819D0022802D0032855D192
:100AD0003FE02089A18888420BD102213046FFF7F0
:100AE00065FC0020208128810120A072A8720020CE
:100AF00070BDA0882189401A80B2F9E720896188F9
:100B0000884206D101213046FFF750FC0020A07238
:100B1000A8722088618808442189401A80B2E7E7DA
:100B2000208861880844218988420BD10021304601
:100B3000FFF73CFC0020208128810320A072A872CE
:100B40000020D5E72088618808442189401A80B2B6
:100B5000CEE72089E18888420BD103213046FFF798
:100B600025FC0020208128810220A072A87200208C
:100B7000BEE7E0882189401A80B2B9E70020B7E7D4
:100B800000BFFEE72DE9F043074688461646994622
:100B9000B9F1010F09D0B9F1020F09D0B9F1030F72
:100BA0000AD0B9F1040F0FD10AE03C1D454612E00E
:100BB0003C1D08F102050EE03C4608F104050AE080
:100BC000BC1C08F1040506E0324641463846FFF7F2
:100BD000AFFBBDE8F08300BF20883044012803DD6F
:100BE00028883044012800DCF3E7208830443C2882
:100BF00003DC288830443C2800DDEAE720883044C4
:100C0000208028883044288000BFE2E7704708B57C
:100C10004FF4A06000F06EF809208DF8000001206C
:100C20008DF8010002208DF8020001208DF80300EC
:100C3000684600F027F84FF4A06000F05BF80A2047
:100C40008DF8000001208DF8010002208DF80200CF
:100C500001208DF80300684600F014F84FF4A060FE
:100C600000F048F817208DF8000001208DF80100F1
:100C700002208DF8020001208DF80300684600F084
:100C800001F808BD70B5002100230F22C47804B319
:100C9000154C246804F4E064C4F5E064210AC1F151
:100CA0000403CA40447804FA03F1847814402143D1
:100CB00009010E4C0678A155047804F01F050124A3
:100CC000AC4005786D11AD0005F1E025C5F8004197
:100CD00009E0047804F01F050124AC40044D0678B7
:100CE000761145F8264070BD0CED00E000E400E010
:100CF00080E100E002490143024A116070470000B0
:100D00000000FA050CED00E07047000029B1064A2A
:100D1000D2690243044BDA6104E0034AD269824398
:100D2000014BDA61704700000010024029B1064A09
:100D300092690243044B9A6104E0034A9269824338
:100D4000014B9A617047000000100240704710B5D7
:100D500000F002F810BD00000CB5002001900090DA
:100D60003348006840F480303149086000BF3048A3
:100D7000006800F4003000900198401C0190009839
:100D800018B90198B0F5A06FF1D12948006800F4B6
:100D9000003010B10120009001E000200090009888
:100DA000012843D12348006840F010002149086021
:100DB0000846006820F0030008600846006840F01C
:100DC000020008601A4840681949486008464068AF
:100DD00048600846406840F48060486008464068C3
:100DE00020F47C1048600846406840F4E8104860F1
:100DF0000846006840F08070086000BF0C4800683A
:100E000000F000700028F9D00948406820F0030085
:100E1000074948600846406840F00200486000BF4B
:100E20000348406800F00C000828F9D10CBD000010
:100E3000001002400020024010B5FFF72FFDFFF721
:100E40005FFCFFF7E4FE10BD7047000010B51348CB
:100E5000006840F0010011490860084640681049E8
:100E600008400E494860084600680E4908400B4992
:100E700008600846006820F4802008600846406842
:100E800020F4FE0048604FF41F008860FFF75FFF0A
:100E90004FF000600449086010BD000000100240DF
:100EA0000000FFF8FFFFF6FE08ED00E010B501219D
:100EB000880700F07DF8012809D1054B054A06494D
:100EC000064800F095F90121880700F062F810BD8E
:100ED000200000202E00002004000020120000202E
:100EE00010B50121224800F063F801283ED12148C5
:100EF0000078072835D2DFE800F0040C141C2430F9
:100F00002C001D4802881D4801881D48FFF7F0FA93
:100F100027E01C4802881C4881881948FFF7E8FA36
:100F20001FE018484288184881881548FFF7E0FA02
:100F300017E014488288144801881148FFF7D8FA4E
:100F40000FE010488288104841880D48FFF7D0FA1A
:100F500007E00B48FFF7A4FA03E00948FFF7A0FAFF
:100F600000BF00BF0121024800F013F810BD0000CF
:100F7000000400403E00002002000020000000208D
:100F80003C000020200000202E000020CA430282E6
:100F90007047CA430282704721B1028842F00102C1
:100FA000028004E002884FF6FE731A400280704708
:100FB00030B50246002000230024158A05EA01030B
:100FC000958905EA010413B10CB1012000E000206D
:100FD00030BD1AB183890B43838102E083898B433F
:100FE0008381704701894FF6F87211400181704783
:100FF000002202881D4B98420ED01D4B98420BD008
:10100000B0F1804F08D01B4B984205D01A4B984244
:1010100002D01A4B984204D14FF68F731A404B8876
:101020001A43174B984207D0164B984204D04FF6FC
:10103000FF431A40CB881A4302808B8883850B8834
:1010400003850A4B98420BD0094B984208D00E4BAF
:10105000984205D00D4B984202D00D4B984201D1D9
:101060000B7A03860123838270470000002C014025
:10107000003401400004004000080040000C004023
:1010800000100040001400400040014000440140B6
:10109000004801401FB501210846FFF737FE4FF019
:1010A0008040FFF79FFF0020ADF80A00ADF8060072
:1010B00042F20F70ADF8080040F2CF20ADF8040006
:1010C00000208DF80C0001A94FF08040FFF790FF41
:1010D00001218807FFF75AFF012211469007FFF709
:1010E00078FF4FF4A060FFF705FE1C208DF800008C
:1010F00001208DF803008DF8010000208DF802001A
:101100006846FFF7BFFD01210220FFF7FFFD1648EB
:10111000FFF768FF0020ADF80A00ADF8060040F2C6
:10112000F310ADF808004720ADF8040001A90E48FF
:10113000FFF75EFF01210C48FFF728FF012211464F
:101140000948FFF746FF1D208DF8000000208DF8AC
:10115000010001208DF802006846FFF793FD012190
:101160000148FFF719FF1FBD0004004008B5012129
:101170000820FFF7DBFD01210420FFF7D7FD012147
:101180001020FFF7D3FD10208DF8030040F2FF3050
:10119000ADF8000003208DF8020069461148FFF702
:1011A000B3FB40F249110F48FFF73BFC1020ADF8AC
:1011B0000000FF20ADF8000003208DF80200694612
:1011C0000948FFF7A1FB1020ADF800000720ADF89B
:1011D000000003208DF8020069460448FFF794FBE5
:1011E00008BD0000000C0140000801400010014053
:1011F0002DE9F04106460C4617461D463A460021A9
:101200003046FFF754FC0F4908802A46012120464A
:10121000FFF74DFC0C4908800C48007880B13089FC
:1012200070B9208960B90E2239463046FEF7CCFFEE
:101230000E2229462046FEF7C7FF0020034908700A
:10124000BDE8F08100000020020000203D000020E9
:1012500000BFFEE7FFF71EFFFFF788FFFFF7ECFD7B
:1012600000BFFEE73F0006005B004F0066006D0018
:101270007D0007007F006F0098120008000000202A
:101280004400000028010008DC120008440000208F
:1012900064060000440100080000000006000C0085
:1012A0001500030000000100000006000C001500FE
:1012B000030000000200000006000C0015000300FF
:1012C00000000100000006000C00150003000000F3
:0C12D00002000000000000000000000010
:04000005080000ED02
:00000001FF
